{
  "address": "0x5FbDB2315678afecb367f032d93F642f64180aa3",
  "abi": [
    {
      "inputs": [],
      "stateMutability": "nonpayable",
      "type": "constructor"
    },
    {
      "inputs": [],
      "name": "InsufficientFunds",
      "type": "error"
    },
    {
      "inputs": [],
      "name": "InvalidPrice",
      "type": "error"
    },
    {
      "inputs": [],
      "name": "InvalidProductState",
      "type": "error"
    },
    {
      "inputs": [],
      "name": "NotOwner",
      "type": "error"
    },
    {
      "inputs": [],
      "name": "ProductAlreadyExists",
      "type": "error"
    },
    {
      "inputs": [],
      "name": "TransacationWasNotSuccessful",
      "type": "error"
    },
    {
      "inputs": [],
      "name": "WrongSignature",
      "type": "error"
    },
    {
      "anonymous": false,
      "inputs": [
        {
          "indexed": false,
          "internalType": "string",
          "name": "productID",
          "type": "string"
        },
        {
          "indexed": false,
          "internalType": "address",
          "name": "buyer",
          "type": "address"
        }
      ],
      "name": "OrderConfirmed",
      "type": "event"
    },
    {
      "anonymous": false,
      "inputs": [
        {
          "indexed": false,
          "internalType": "string",
          "name": "productID",
          "type": "string"
        },
        {
          "indexed": false,
          "internalType": "uint256",
          "name": "amount",
          "type": "uint256"
        },
        {
          "indexed": false,
          "internalType": "address",
          "name": "buyer",
          "type": "address"
        }
      ],
      "name": "OrderPlaced",
      "type": "event"
    },
    {
      "anonymous": false,
      "inputs": [
        {
          "indexed": false,
          "internalType": "string",
          "name": "productID",
          "type": "string"
        },
        {
          "indexed": false,
          "internalType": "uint256",
          "name": "amount",
          "type": "uint256"
        },
        {
          "indexed": true,
          "internalType": "address",
          "name": "seller",
          "type": "address"
        }
      ],
      "name": "ProductCreated",
      "type": "event"
    },
    {
      "anonymous": false,
      "inputs": [
        {
          "indexed": false,
          "internalType": "string",
          "name": "productID",
          "type": "string"
        },
        {
          "indexed": false,
          "internalType": "uint256",
          "name": "amount",
          "type": "uint256"
        }
      ],
      "name": "ProductListed",
      "type": "event"
    },
    {
      "anonymous": false,
      "inputs": [
        {
          "indexed": false,
          "internalType": "string",
          "name": "productID",
          "type": "string"
        }
      ],
      "name": "ProductUnlisted",
      "type": "event"
    },
    {
      "inputs": [
        {
          "internalType": "string",
          "name": "_productID",
          "type": "string"
        }
      ],
      "name": "cancelOrder",
      "outputs": [],
      "stateMutability": "nonpayable",
      "type": "function"
    },
    {
      "inputs": [
        {
          "internalType": "address",
          "name": "_owner",
          "type": "address"
        }
      ],
      "name": "changeOwner",
      "outputs": [],
      "stateMutability": "nonpayable",
      "type": "function"
    },
    {
      "inputs": [
        {
          "internalType": "string",
          "name": "_productID",
          "type": "string"
        }
      ],
      "name": "confirmOrder",
      "outputs": [],
      "stateMutability": "nonpayable",
      "type": "function"
    },
    {
      "inputs": [
        {
          "internalType": "string",
          "name": "_productID",
          "type": "string"
        },
        {
          "internalType": "uint256",
          "name": "_amount",
          "type": "uint256"
        },
        {
          "internalType": "string",
          "name": "_merchantID",
          "type": "string"
        },
        {
          "internalType": "address",
          "name": "creator",
          "type": "address"
        }
      ],
      "name": "createProduct",
      "outputs": [],
      "stateMutability": "nonpayable",
      "type": "function"
    },
    {
      "inputs": [
        {
          "internalType": "string",
          "name": "_productID",
          "type": "string"
        },
        {
          "internalType": "uint256",
          "name": "_amount",
          "type": "uint256"
        },
        {
          "internalType": "string",
          "name": "_buyerID",
          "type": "string"
        }
      ],
      "name": "orderProduct",
      "outputs": [],
      "stateMutability": "payable",
      "type": "function"
    },
    {
      "inputs": [
        {
          "internalType": "string",
          "name": "",
          "type": "string"
        }
      ],
      "name": "orders",
      "outputs": [
        {
          "internalType": "string",
          "name": "productID",
          "type": "string"
        },
        {
          "internalType": "uint256",
          "name": "amount",
          "type": "uint256"
        },
        {
          "internalType": "address",
          "name": "buyerAddress",
          "type": "address"
        },
        {
          "internalType": "string",
          "name": "buyerID",
          "type": "string"
        }
      ],
      "stateMutability": "view",
      "type": "function"
    },
    {
      "inputs": [
        {
          "internalType": "string",
          "name": "",
          "type": "string"
        }
      ],
      "name": "products",
      "outputs": [
        {
          "internalType": "string",
          "name": "productID",
          "type": "string"
        },
        {
          "internalType": "uint256",
          "name": "amount",
          "type": "uint256"
        },
        {
          "internalType": "address",
          "name": "wallet",
          "type": "address"
        },
        {
          "internalType": "string",
          "name": "hash",
          "type": "string"
        },
        {
          "internalType": "string",
          "name": "merchantID",
          "type": "string"
        },
        {
          "internalType": "enum Marketplace.ProductState",
          "name": "state",
          "type": "uint8"
        }
      ],
      "stateMutability": "view",
      "type": "function"
    },
    {
      "inputs": [
        {
          "internalType": "string",
          "name": "_productID",
          "type": "string"
        }
      ],
      "name": "unlistProduct",
      "outputs": [],
      "stateMutability": "nonpayable",
      "type": "function"
    },
    {
      "inputs": [
        {
          "internalType": "string",
          "name": "_productID",
          "type": "string"
        }
      ],
      "name": "viewOrder",
      "outputs": [
        {
          "components": [
            {
              "internalType": "string",
              "name": "productID",
              "type": "string"
            },
            {
              "internalType": "uint256",
              "name": "amount",
              "type": "uint256"
            },
            {
              "internalType": "address",
              "name": "buyerAddress",
              "type": "address"
            },
            {
              "internalType": "string",
              "name": "buyerID",
              "type": "string"
            }
          ],
          "internalType": "struct Marketplace.Order",
          "name": "",
          "type": "tuple"
        }
      ],
      "stateMutability": "view",
      "type": "function"
    },
    {
      "inputs": [
        {
          "internalType": "string",
          "name": "_productID",
          "type": "string"
        }
      ],
      "name": "viewProduct",
      "outputs": [
        {
          "components": [
            {
              "internalType": "string",
              "name": "productID",
              "type": "string"
            },
            {
              "internalType": "uint256",
              "name": "amount",
              "type": "uint256"
            },
            {
              "internalType": "address",
              "name": "wallet",
              "type": "address"
            },
            {
              "internalType": "string",
              "name": "hash",
              "type": "string"
            },
            {
              "internalType": "string",
              "name": "merchantID",
              "type": "string"
            },
            {
              "internalType": "enum Marketplace.ProductState",
              "name": "state",
              "type": "uint8"
            }
          ],
          "internalType": "struct Marketplace.Product",
          "name": "",
          "type": "tuple"
        }
      ],
      "stateMutability": "view",
      "type": "function"
    }
  ],
  "transactionHash": "0x6dce68746d3655a61a1c7c7c376eac3abe2d330dc469b60595c2f2acf96b1d3b",
  "args": [],
  "numDeployments": 1,
  "solcInputHash": "a14825d32db92908e5c141f1c800765a",
  "bytecode": "0x608060405234801561001057600080fd5b50336000806101000a81548173ffffffffffffffffffffffffffffffffffffffff021916908373ffffffffffffffffffffffffffffffffffffffff16021790555061241f806100606000396000f3fe6080604052600436106100915760003560e01c8063a6f9dae111610059578063a6f9dae114610186578063ab4d675e146101af578063c2558ffd146101ec578063d4de711c14610215578063f7eff0ab1461023e57610091565b80630186a423146100965780631a948947146100d857806334e750ee146101185780633ace041a146101345780633fa68be61461015d575b600080fd5b3480156100a257600080fd5b506100bd60048036038101906100b891906119e5565b61027b565b6040516100cf96959493929190611b7e565b60405180910390f35b3480156100e457600080fd5b506100ff60048036038101906100fa91906119e5565b610492565b60405161010f9493929190611bf4565b60405180910390f35b610132600480360381019061012d9190611c73565b610608565b005b34801561014057600080fd5b5061015b600480360381019061015691906119e5565b610884565b005b34801561016957600080fd5b50610184600480360381019061017f91906119e5565b610b68565b005b34801561019257600080fd5b506101ad60048036038101906101a89190611d2a565b610cfd565b005b3480156101bb57600080fd5b506101d660048036038101906101d191906119e5565b610d89565b6040516101e39190611e65565b60405180910390f35b3480156101f857600080fd5b50610213600480360381019061020e91906119e5565b611012565b005b34801561022157600080fd5b5061023c60048036038101906102379190611e87565b61126b565b005b34801561024a57600080fd5b50610265600480360381019061026091906119e5565b6114ff565b6040516102729190611f90565b60405180910390f35b6001818051602081018201805184825260208301602085012081835280955050505050506000915090508060000180546102b490611fe1565b80601f01602080910402602001604051908101604052809291908181526020018280546102e090611fe1565b801561032d5780601f106103025761010080835404028352916020019161032d565b820191906000526020600020905b81548152906001019060200180831161031057829003601f168201915b5050505050908060010154908060020160009054906101000a900473ffffffffffffffffffffffffffffffffffffffff169080600301805461036e90611fe1565b80601f016020809104026020016040519081016040528092919081815260200182805461039a90611fe1565b80156103e75780601f106103bc576101008083540402835291602001916103e7565b820191906000526020600020905b8154815290600101906020018083116103ca57829003601f168201915b5050505050908060040180546103fc90611fe1565b80601f016020809104026020016040519081016040528092919081815260200182805461042890611fe1565b80156104755780601f1061044a57610100808354040283529160200191610475565b820191906000526020600020905b81548152906001019060200180831161045857829003601f168201915b5050505050908060050160009054906101000a900460ff16905086565b6002818051602081018201805184825260208301602085012081835280955050505050506000915090508060000180546104cb90611fe1565b80601f01602080910402602001604051908101604052809291908181526020018280546104f790611fe1565b80156105445780601f1061051957610100808354040283529160200191610544565b820191906000526020600020905b81548152906001019060200180831161052757829003601f168201915b5050505050908060010154908060020160009054906101000a900473ffffffffffffffffffffffffffffffffffffffff169080600301805461058590611fe1565b80601f01602080910402602001604051908101604052809291908181526020018280546105b190611fe1565b80156105fe5780601f106105d3576101008083540402835291602001916105fe565b820191906000526020600020905b8154815290600101906020018083116105e157829003601f168201915b5050505050905084565b6000600381111561061c5761061b611b07565b5b60018460405161062c919061204e565b908152602001604051809103902060050160009054906101000a900460ff16600381111561065d5761065c611b07565b5b03610694576040517f9a66ef8d00000000000000000000000000000000000000000000000000000000815260040160405180910390fd5b816001846040516106a5919061204e565b908152602001604051809103902060010154036106ed576040517ebfc92100000000000000000000000000000000000000000000000000000000815260040160405180910390fd5b813403610726576040517f356680b700000000000000000000000000000000000000000000000000000000815260040160405180910390fd5b60405180608001604052808481526020018381526020013373ffffffffffffffffffffffffffffffffffffffff1681526020018281525060028460405161076d919061204e565b908152602001604051809103902060008201518160000190816107909190612211565b506020820151816001015560408201518160020160006101000a81548173ffffffffffffffffffffffffffffffffffffffff021916908373ffffffffffffffffffffffffffffffffffffffff16021790555060608201518160030190816107f79190612211565b509050506001808460405161080c919061204e565b908152602001604051809103902060050160006101000a81548160ff0219169083600381111561083f5761083e611b07565b5b02179055507f6c6eb701c60c9470109290f5c0b690fd029bf7b24d2005525f84d2338360c9b2838333604051610877939291906122e3565b60405180910390a1505050565b60008054906101000a900473ffffffffffffffffffffffffffffffffffffffff1673ffffffffffffffffffffffffffffffffffffffff163373ffffffffffffffffffffffffffffffffffffffff1614610909576040517f30cd747100000000000000000000000000000000000000000000000000000000815260040160405180910390fd5b6001600381111561091d5761091c611b07565b5b60018260405161092d919061204e565b908152602001604051809103902060050160009054906101000a900460ff16600381111561095e5761095d611b07565b5b03610995576040517f9a66ef8d00000000000000000000000000000000000000000000000000000000815260040160405180910390fd5b60026001826040516109a7919061204e565b908152602001604051809103902060050160006101000a81548160ff021916908360038111156109da576109d9611b07565b5b021790555060006001826040516109f1919061204e565b90815260200160405180910390206001015490506000600183604051610a17919061204e565b908152602001604051809103902060020160009054906101000a900473ffffffffffffffffffffffffffffffffffffffff1673ffffffffffffffffffffffffffffffffffffffff1682604051610a6c90612352565b60006040518083038185875af1925050503d8060008114610aa9576040519150601f19603f3d011682016040523d82523d6000602084013e610aae565b606091505b5050905080610ae9576040517f1854c3ab00000000000000000000000000000000000000000000000000000000815260040160405180910390fd5b7fac24ed9211b4d75276b27d7f679ed153d99e277825f8d0685762e4046ba383d083600285604051610b1b919061204e565b908152602001604051809103902060020160009054906101000a900473ffffffffffffffffffffffffffffffffffffffff16604051610b5b929190612367565b60405180910390a1505050565b60008054906101000a900473ffffffffffffffffffffffffffffffffffffffff1673ffffffffffffffffffffffffffffffffffffffff163373ffffffffffffffffffffffffffffffffffffffff1614610bed576040517f30cd747100000000000000000000000000000000000000000000000000000000815260040160405180910390fd5b60006003811115610c0157610c00611b07565b5b600182604051610c11919061204e565b908152602001604051809103902060050160009054906101000a900460ff166003811115610c4257610c41611b07565b5b03610c79576040517f9a66ef8d00000000000000000000000000000000000000000000000000000000815260040160405180910390fd5b6003600182604051610c8b919061204e565b908152602001604051809103902060050160006101000a81548160ff02191690836003811115610cbe57610cbd611b07565b5b02179055507f4037d859ce7adc3359e3310038adf1e2f91ec4b8bcede565b11562ab9ad026d781604051610cf29190612397565b60405180910390a150565b60008054906101000a900473ffffffffffffffffffffffffffffffffffffffff1673ffffffffffffffffffffffffffffffffffffffff163373ffffffffffffffffffffffffffffffffffffffff1614610d82576040517f30cd747100000000000000000000000000000000000000000000000000000000815260040160405180910390fd5b8060005550565b610d91611792565b600182604051610da1919061204e565b90815260200160405180910390206040518060c0016040529081600082018054610dca90611fe1565b80601f0160208091040260200160405190810160405280929190818152602001828054610df690611fe1565b8015610e435780601f10610e1857610100808354040283529160200191610e43565b820191906000526020600020905b815481529060010190602001808311610e2657829003601f168201915b50505050508152602001600182015481526020016002820160009054906101000a900473ffffffffffffffffffffffffffffffffffffffff1673ffffffffffffffffffffffffffffffffffffffff1673ffffffffffffffffffffffffffffffffffffffff168152602001600382018054610ebc90611fe1565b80601f0160208091040260200160405190810160405280929190818152602001828054610ee890611fe1565b8015610f355780601f10610f0a57610100808354040283529160200191610f35565b820191906000526020600020905b815481529060010190602001808311610f1857829003601f168201915b50505050508152602001600482018054610f4e90611fe1565b80601f0160208091040260200160405190810160405280929190818152602001828054610f7a90611fe1565b8015610fc75780601f10610f9c57610100808354040283529160200191610fc7565b820191906000526020600020905b815481529060010190602001808311610faa57829003601f168201915b505050505081526020016005820160009054906101000a900460ff166003811115610ff557610ff4611b07565b5b600381111561100757611006611b07565b5b815250509050919050565b803373ffffffffffffffffffffffffffffffffffffffff1660028260405161103a919061204e565b908152602001604051809103902060020160009054906101000a900473ffffffffffffffffffffffffffffffffffffffff1673ffffffffffffffffffffffffffffffffffffffff16036110b9576040517f356a441800000000000000000000000000000000000000000000000000000000815260040160405180910390fd5b600160038111156110cd576110cc611b07565b5b6001836040516110dd919061204e565b908152602001604051809103902060050160009054906101000a900460ff16600381111561110e5761110d611b07565b5b03611145576040517f9a66ef8d00000000000000000000000000000000000000000000000000000000815260040160405180910390fd5b3373ffffffffffffffffffffffffffffffffffffffff166108fc60028460405161116f919061204e565b9081526020016040518091039020600101549081150290604051600060405180830381858888f193505050501580156111ac573d6000803e3d6000fd5b506002826040516111bd919061204e565b9081526020016040518091039020600080820160006111dc91906117f0565b60018201600090556002820160006101000a81549073ffffffffffffffffffffffffffffffffffffffff021916905560038201600061121b91906117f0565b5050600360018360405161122f919061204e565b908152602001604051809103902060050160006101000a81548160ff0219169083600381111561126257611261611b07565b5b02179055505050565b60008054906101000a900473ffffffffffffffffffffffffffffffffffffffff1673ffffffffffffffffffffffffffffffffffffffff163373ffffffffffffffffffffffffffffffffffffffff16146112f0576040517f30cd747100000000000000000000000000000000000000000000000000000000815260040160405180910390fd5b600073ffffffffffffffffffffffffffffffffffffffff16600185604051611318919061204e565b908152602001604051809103902060020160009054906101000a900473ffffffffffffffffffffffffffffffffffffffff1673ffffffffffffffffffffffffffffffffffffffff1603611397576040517f7afeb2e100000000000000000000000000000000000000000000000000000000815260040160405180910390fd5b6040518060c001604052808581526020018481526020018273ffffffffffffffffffffffffffffffffffffffff168152602001604051806020016040528060008152508152602001838152602001600060038111156113f9576113f8611b07565b5b81525060018560405161140c919061204e565b9081526020016040518091039020600082015181600001908161142f9190612211565b506020820151816001015560408201518160020160006101000a81548173ffffffffffffffffffffffffffffffffffffffff021916908373ffffffffffffffffffffffffffffffffffffffff16021790555060608201518160030190816114969190612211565b5060808201518160040190816114ac9190612211565b5060a08201518160050160006101000a81548160ff021916908360038111156114d8576114d7611b07565b5b02179055509050506114f984604051806020016040528060008152506116bb565b50505050565b611507611830565b600282604051611517919061204e565b908152602001604051809103902060405180608001604052908160008201805461154090611fe1565b80601f016020809104026020016040519081016040528092919081815260200182805461156c90611fe1565b80156115b95780601f1061158e576101008083540402835291602001916115b9565b820191906000526020600020905b81548152906001019060200180831161159c57829003601f168201915b50505050508152602001600182015481526020016002820160009054906101000a900473ffffffffffffffffffffffffffffffffffffffff1673ffffffffffffffffffffffffffffffffffffffff1673ffffffffffffffffffffffffffffffffffffffff16815260200160038201805461163290611fe1565b80601f016020809104026020016040519081016040528092919081815260200182805461165e90611fe1565b80156116ab5780601f10611680576101008083540402835291602001916116ab565b820191906000526020600020905b81548152906001019060200180831161168e57829003601f168201915b5050505050815250509050919050565b806001836040516116cc919061204e565b908152602001604051809103902060030190816116e99190612211565b5060006001836040516116fc919061204e565b908152602001604051809103902060050160006101000a81548160ff0219169083600381111561172f5761172e611b07565b5b02179055507f666b1db289eab7696684d0308b6790d665fab3e8d4400c18f08d1a0d9408133782600184604051611766919061204e565b9081526020016040518091039020600101546040516117869291906123b9565b60405180910390a15050565b6040518060c001604052806060815260200160008152602001600073ffffffffffffffffffffffffffffffffffffffff1681526020016060815260200160608152602001600060038111156117ea576117e9611b07565b5b81525090565b5080546117fc90611fe1565b6000825580601f1061180e575061182d565b601f01602090049060005260206000209081019061182c919061186e565b5b50565b60405180608001604052806060815260200160008152602001600073ffffffffffffffffffffffffffffffffffffffff168152602001606081525090565b5b8082111561188757600081600090555060010161186f565b5090565b6000604051905090565b600080fd5b600080fd5b600080fd5b600080fd5b6000601f19601f8301169050919050565b7f4e487b7100000000000000000000000000000000000000000000000000000000600052604160045260246000fd5b6118f2826118a9565b810181811067ffffffffffffffff82111715611911576119106118ba565b5b80604052505050565b600061192461188b565b905061193082826118e9565b919050565b600067ffffffffffffffff8211156119505761194f6118ba565b5b611959826118a9565b9050602081019050919050565b82818337600083830152505050565b600061198861198384611935565b61191a565b9050828152602081018484840111156119a4576119a36118a4565b5b6119af848285611966565b509392505050565b600082601f8301126119cc576119cb61189f565b5b81356119dc848260208601611975565b91505092915050565b6000602082840312156119fb576119fa611895565b5b600082013567ffffffffffffffff811115611a1957611a1861189a565b5b611a25848285016119b7565b91505092915050565b600081519050919050565b600082825260208201905092915050565b60005b83811015611a68578082015181840152602081019050611a4d565b60008484015250505050565b6000611a7f82611a2e565b611a898185611a39565b9350611a99818560208601611a4a565b611aa2816118a9565b840191505092915050565b6000819050919050565b611ac081611aad565b82525050565b600073ffffffffffffffffffffffffffffffffffffffff82169050919050565b6000611af182611ac6565b9050919050565b611b0181611ae6565b82525050565b7f4e487b7100000000000000000000000000000000000000000000000000000000600052602160045260246000fd5b60048110611b4757611b46611b07565b5b50565b6000819050611b5882611b36565b919050565b6000611b6882611b4a565b9050919050565b611b7881611b5d565b82525050565b600060c0820190508181036000830152611b988189611a74565b9050611ba76020830188611ab7565b611bb46040830187611af8565b8181036060830152611bc68186611a74565b90508181036080830152611bda8185611a74565b9050611be960a0830184611b6f565b979650505050505050565b60006080820190508181036000830152611c0e8187611a74565b9050611c1d6020830186611ab7565b611c2a6040830185611af8565b8181036060830152611c3c8184611a74565b905095945050505050565b611c5081611aad565b8114611c5b57600080fd5b50565b600081359050611c6d81611c47565b92915050565b600080600060608486031215611c8c57611c8b611895565b5b600084013567ffffffffffffffff811115611caa57611ca961189a565b5b611cb6868287016119b7565b9350506020611cc786828701611c5e565b925050604084013567ffffffffffffffff811115611ce857611ce761189a565b5b611cf4868287016119b7565b9150509250925092565b611d0781611ae6565b8114611d1257600080fd5b50565b600081359050611d2481611cfe565b92915050565b600060208284031215611d4057611d3f611895565b5b6000611d4e84828501611d15565b91505092915050565b600082825260208201905092915050565b6000611d7382611a2e565b611d7d8185611d57565b9350611d8d818560208601611a4a565b611d96816118a9565b840191505092915050565b611daa81611aad565b82525050565b611db981611ae6565b82525050565b611dc881611b5d565b82525050565b600060c0830160008301518482036000860152611deb8282611d68565b9150506020830151611e006020860182611da1565b506040830151611e136040860182611db0565b5060608301518482036060860152611e2b8282611d68565b91505060808301518482036080860152611e458282611d68565b91505060a0830151611e5a60a0860182611dbf565b508091505092915050565b60006020820190508181036000830152611e7f8184611dce565b905092915050565b60008060008060808587031215611ea157611ea0611895565b5b600085013567ffffffffffffffff811115611ebf57611ebe61189a565b5b611ecb878288016119b7565b9450506020611edc87828801611c5e565b935050604085013567ffffffffffffffff811115611efd57611efc61189a565b5b611f09878288016119b7565b9250506060611f1a87828801611d15565b91505092959194509250565b60006080830160008301518482036000860152611f438282611d68565b9150506020830151611f586020860182611da1565b506040830151611f6b6040860182611db0565b5060608301518482036060860152611f838282611d68565b9150508091505092915050565b60006020820190508181036000830152611faa8184611f26565b905092915050565b7f4e487b7100000000000000000000000000000000000000000000000000000000600052602260045260246000fd5b60006002820490506001821680611ff957607f821691505b60208210810361200c5761200b611fb2565b5b50919050565b600081905092915050565b600061202882611a2e565b6120328185612012565b9350612042818560208601611a4a565b80840191505092915050565b600061205a828461201d565b915081905092915050565b60008190508160005260206000209050919050565b60006020601f8301049050919050565b600082821b905092915050565b6000600883026120c77fffffffffffffffffffffffffffffffffffffffffffffffffffffffffffffffff8261208a565b6120d1868361208a565b95508019841693508086168417925050509392505050565b6000819050919050565b600061210e61210961210484611aad565b6120e9565b611aad565b9050919050565b6000819050919050565b612128836120f3565b61213c61213482612115565b848454612097565b825550505050565b600090565b612151612144565b61215c81848461211f565b505050565b5b8181101561218057612175600082612149565b600181019050612162565b5050565b601f8211156121c55761219681612065565b61219f8461207a565b810160208510156121ae578190505b6121c26121ba8561207a565b830182612161565b50505b505050565b600082821c905092915050565b60006121e8600019846008026121ca565b1980831691505092915050565b600061220183836121d7565b9150826002028217905092915050565b61221a82611a2e565b67ffffffffffffffff811115612233576122326118ba565b5b61223d8254611fe1565b612248828285612184565b600060209050601f83116001811461227b5760008415612269578287015190505b61227385826121f5565b8655506122db565b601f19841661228986612065565b60005b828110156122b15784890151825560018201915060208501945060208101905061228c565b868310156122ce57848901516122ca601f8916826121d7565b8355505b6001600288020188555050505b505050505050565b600060608201905081810360008301526122fd8186611a74565b905061230c6020830185611ab7565b6123196040830184611af8565b949350505050565b600081905092915050565b50565b600061233c600083612321565b91506123478261232c565b600082019050919050565b600061235d8261232f565b9150819050919050565b600060408201905081810360008301526123818185611a74565b90506123906020830184611af8565b9392505050565b600060208201905081810360008301526123b18184611a74565b905092915050565b600060408201905081810360008301526123d38185611a74565b90506123e26020830184611ab7565b939250505056fea264697066735822122019f8dbaa8b4980ec0f25df7a639d0024d1cae89f0b02e350284919984b2f0e1664736f6c63430008110033",
  "devdoc": {
    "kind": "dev",
    "methods": {},
    "version": 1
  },
  "userdoc": {
    "kind": "user",
    "methods": {},
    "version": 1
  },
  "storageLayout": {
    "storage": [
      {
        "astId": 5,
        "contract": "contracts/Marketplace.sol:Marketplace",
        "label": "owner",
        "offset": 0,
        "slot": "0",
        "type": "t_address"
      },
      {
        "astId": 43,
        "contract": "contracts/Marketplace.sol:Marketplace",
        "label": "products",
        "offset": 0,
        "slot": "1",
        "type": "t_mapping(t_string_memory_ptr,t_struct(Product)24_storage)"
      },
      {
        "astId": 48,
        "contract": "contracts/Marketplace.sol:Marketplace",
        "label": "orders",
        "offset": 0,
        "slot": "2",
        "type": "t_mapping(t_string_memory_ptr,t_struct(Order)33_storage)"
      },
      {
        "astId": 52,
        "contract": "contracts/Marketplace.sol:Marketplace",
        "label": "claims",
        "offset": 0,
        "slot": "3",
        "type": "t_array(t_struct(Redeem)38_storage)dyn_storage"
      }
    ],
    "types": {
      "t_address": {
        "encoding": "inplace",
        "label": "address",
        "numberOfBytes": "20"
      },
      "t_array(t_struct(Redeem)38_storage)dyn_storage": {
        "base": "t_struct(Redeem)38_storage",
        "encoding": "dynamic_array",
        "label": "struct Marketplace.Redeem[]",
        "numberOfBytes": "32"
      },
      "t_enum(ProductState)10": {
        "encoding": "inplace",
        "label": "enum Marketplace.ProductState",
        "numberOfBytes": "1"
      },
      "t_mapping(t_string_memory_ptr,t_struct(Order)33_storage)": {
        "encoding": "mapping",
        "key": "t_string_memory_ptr",
        "label": "mapping(string => struct Marketplace.Order)",
        "numberOfBytes": "32",
        "value": "t_struct(Order)33_storage"
      },
      "t_mapping(t_string_memory_ptr,t_struct(Product)24_storage)": {
        "encoding": "mapping",
        "key": "t_string_memory_ptr",
        "label": "mapping(string => struct Marketplace.Product)",
        "numberOfBytes": "32",
        "value": "t_struct(Product)24_storage"
      },
      "t_string_memory_ptr": {
        "encoding": "bytes",
        "label": "string",
        "numberOfBytes": "32"
      },
      "t_string_storage": {
        "encoding": "bytes",
        "label": "string",
        "numberOfBytes": "32"
      },
      "t_struct(Order)33_storage": {
        "encoding": "inplace",
        "label": "struct Marketplace.Order",
        "members": [
          {
            "astId": 26,
            "contract": "contracts/Marketplace.sol:Marketplace",
            "label": "productID",
            "offset": 0,
            "slot": "0",
            "type": "t_string_storage"
          },
          {
            "astId": 28,
            "contract": "contracts/Marketplace.sol:Marketplace",
            "label": "amount",
            "offset": 0,
            "slot": "1",
            "type": "t_uint256"
          },
          {
            "astId": 30,
            "contract": "contracts/Marketplace.sol:Marketplace",
            "label": "buyerAddress",
            "offset": 0,
            "slot": "2",
            "type": "t_address"
          },
          {
            "astId": 32,
            "contract": "contracts/Marketplace.sol:Marketplace",
            "label": "buyerID",
            "offset": 0,
            "slot": "3",
            "type": "t_string_storage"
          }
        ],
        "numberOfBytes": "128"
      },
      "t_struct(Product)24_storage": {
        "encoding": "inplace",
        "label": "struct Marketplace.Product",
        "members": [
          {
            "astId": 12,
            "contract": "contracts/Marketplace.sol:Marketplace",
            "label": "productID",
            "offset": 0,
            "slot": "0",
            "type": "t_string_storage"
          },
          {
            "astId": 14,
            "contract": "contracts/Marketplace.sol:Marketplace",
            "label": "amount",
            "offset": 0,
            "slot": "1",
            "type": "t_uint256"
          },
          {
            "astId": 16,
            "contract": "contracts/Marketplace.sol:Marketplace",
            "label": "wallet",
            "offset": 0,
            "slot": "2",
            "type": "t_address"
          },
          {
            "astId": 18,
            "contract": "contracts/Marketplace.sol:Marketplace",
            "label": "hash",
            "offset": 0,
            "slot": "3",
            "type": "t_string_storage"
          },
          {
            "astId": 20,
            "contract": "contracts/Marketplace.sol:Marketplace",
            "label": "merchantID",
            "offset": 0,
            "slot": "4",
            "type": "t_string_storage"
          },
          {
            "astId": 23,
            "contract": "contracts/Marketplace.sol:Marketplace",
            "label": "state",
            "offset": 0,
            "slot": "5",
            "type": "t_enum(ProductState)10"
          }
        ],
        "numberOfBytes": "192"
      },
      "t_struct(Redeem)38_storage": {
        "encoding": "inplace",
        "label": "struct Marketplace.Redeem",
        "members": [
          {
            "astId": 35,
            "contract": "contracts/Marketplace.sol:Marketplace",
            "label": "id",
            "offset": 0,
            "slot": "0",
            "type": "t_address"
          },
          {
            "astId": 37,
            "contract": "contracts/Marketplace.sol:Marketplace",
            "label": "gas",
            "offset": 0,
            "slot": "1",
            "type": "t_uint256"
          }
        ],
        "numberOfBytes": "64"
      },
      "t_uint256": {
        "encoding": "inplace",
        "label": "uint256",
        "numberOfBytes": "32"
      }
    }
  }
}